:100000000C9462000C947F000C947F000C947F0091
:100010000C947F000C947F000C947F000C947F0064
:100020000C947F000C947F000C947F000C947F0054
:100030000C9436030C947F000C947F000C947F008A
:100040000C947F000C947F000C947F000C947F0034
:100050000C947F000C9429040C947F000C940204EF
:100060000C947F000C947F000C94A2000C947F00F1
:100070000C947F000C947F000C947F000C947F0004
:100080000C947F000C947F000C947F000C94A401CE
:100090000C947F000C947F000C947F000C947F00E4
:1000A0000C947F000C947F000C947F000C947F00D4
:1000B0001B0230023902460254028D02A102AE0236
:1000C000B502C40211241FBECFEFCDBFDFE7DEBFF4
:1000D00010E6A0E0B0E6EEE9F8E002C005900D926F
:1000E000A231B107D9F720E6A2E1B0E601C01D9226
:1000F000A732B207E1F70E94CF010C944D040C9493
:10010000000080EE8093620486E08093B000E0E01F
:10011000F6E094E0918393E0928390EA938395E0F4
:100120009087818781E0848781E28083089581E0E0
:1001300080930A060895E0E0F6E082E082878089F5
:10014000918908951F920F920FB60F9211242F9349
:100150003F934F935F936F937F938F939F93AF934F
:10016000BF93EF93FF9380911006909111060E9428
:100170006401FF91EF91BF91AF919F918F917F911A
:100180006F915F914F913F912F910F900FBE0F9004
:100190001F9018958CE080936104089588E0809307
:1001A0006504089588E0809366040895019721F41A
:1001B00088E08093660403C088E080936504613022
:1001C000710521F04115510501F5089541155105BD
:1001D000B9F180E090E0E0E6F4E024E02783ABE2D0
:1001E000B1E01197F1F700C000002783ABE2B1E066
:1001F0001197F1F700C0000030911F60311120C04D
:1002000001964817590751F7089580E090E0E0E61D
:10021000F4E024E02783A7EBBBE01197F1F700C0DF
:1002200000002783A7EBBBE01197F1F700C00000A7
:1002300030911F60311104C001964817590751F7DA
:100240000895E0E4F4E081E0828388E0808B089503
:10025000809148048095817008950E94280191E062
:100260008927089560E081E690E00E94470464E2F7
:1002700088E690E00E94470460E080E091E00E9400
:10028000470408958091176090911860A0911960BB
:10029000B0911A60892B8A2B8B2BA9F08091176063
:1002A00090911860A0911960B0911A600197A1090E
:1002B000B1098093176090931860A0931960B09370
:1002C0001A600E9497000895CF93DF93EC0180910C
:1002D000176090911860A0911960B0911A60892BF5
:1002E0008A2B8B2B29F40E94300381E080931360CA
:1002F000C0931560D093166081E080931260809166
:100300001560909116600E947D03DF91CF91089552
:10031000809114608823B9F080911260882399F04D
:10032000109212608091156090911660892F0E9442
:100330007D0380911360882331F010921360109236
:1003400014600E94AB0308951F920F920FB60F9294
:1003500011248F939F93EF93FF938091A90482FFC1
:100360000AC080911B6090911C60892B59F481E038
:100370008093206007C08091A90483FF03C081E0BF
:1003800080931F60E0EAF4E081858187FF91EF911F
:100390009F918F910F900FBE0F901F9018950E9404
:1003A00032010E9467030E9481000E94CA000E94DD
:1003B000E4020E942101E0EAF4E08CE0828383E021
:1003C000828B838B78940E942801882341F040ED32
:1003D00057E061E070E081E090E00E94D600712C6F
:1003E000C9E0D0E06894882481F8912C6894AA240C
:1003F000A3F8B12C04E010E0662463940F2EF5E01E
:10040000CF2ED12CF02D0F2EF3E0EF2EF12CF02D6E
:1004100080911F60882321F0C0931B60D0931C60E3
:10042000E0911B60F0911C60EA30F10588F7E85A12
:10043000FF4F0C94410480912060882349F381E0B0
:1004400090E080931B6090931C6010922060E0CF3E
:1004500041E050E060E070E080E090E00E94D60073
:100460000E942D018111F4CF80921B6090921C603C
:10047000CFCF48EA51E661E070E081E090E00E9471
:10048000D600E0921B60F0921C60C2CF48EE53E0B1
:1004900060E070E081E090E00E94D60000931B6075
:1004A00010931C60712CB4CF0E94A6038FE79FEEBF
:1004B000A0E0B0E08093176090931860A09319605B
:1004C000B0931A60609214601092126010921360E0
:1004D0000E94290319C080911F608823A9F0F89415
:1004E00010921760109218601092196010921A60A2
:1004F0006092146010921260109213600E949B0030
:100500000E943003789404C0809114608111E3CF7D
:10051000C0921B60D0921C607BCF6FE77FEE80E0C3
:1005200090E00E94FC0273948BE0781619F086E04C
:1005300090E002C087E090E080931B6090931C6085
:1005400067CF48E552E060E070E080E090E00E9414
:10055000D60000931B6010931C605ACF0E94D603F4
:10056000A0921B60B0921C6053CF40E556E461E05E
:1005700070E080E090E00E94D6001092206010921F
:100580001B6010921C6044CF10921B6010921C6084
:100590001092206010921F600E94E70308C041E0A3
:1005A00050E061E070E080E090E00E94D6000E94A0
:1005B0002D018111F4CF40ED57E061E070E081E062
:1005C00090E00E94D60024CFE0E6F4E082E181834F
:1005D00080E8818B83E08093E605E0E0FAE083E247
:1005E000818380E2828780ED97E082A793A780EAEB
:1005F0009FE086A397A30895AB01BC011092E60586
:1006000080E1809367044115510561057105D1F0C2
:1006100080E090E0DC01E0E6F4E022E0258330EACF
:100620003A95F1F7268330EA3A95F1F730911F6059
:10063000311108C00196A11DB11D481759076A075D
:100640007B0761F780E18093670483E08093E60590
:100650000895E0E0FAE088E0858381E080830895F2
:10066000E0E0FAE0108280E2838708951F920F9203
:100670000FB60F9211242F933F934F935F936F9375
:100680007F938F939F93AF93BF93EF93FF9380E2FA
:1006900080930B0A0E944201FF91EF91BF91AF91AD
:1006A0009F918F917F916F915F914F913F912F918A
:1006B0000F900FBE0F901F901895E0E0F8E0948126
:1006C00095FFFDCF8093020880E090E00895E0E080
:1006D000F4E081E0818382E08283E0E0F8E080EC76
:1006E0008683858388E690E08087918784E090E622
:1006F0008093236090932460089540911D605091F1
:100700001E60982F942760E1969F900111249227F4
:10071000292F30E0722F6627452F5527462B572B60
:1007200092959F70220F331F220F331F220F331F0A
:1007300029272427352720931D6030931E60909130
:10074000040895FFFFCF80930208089510921D6062
:1007500010921E600895E0E0F8E085818F7B85832C
:10076000848185FFFDCF80911D6090911E608093F4
:100770000208E0E0F8E0848185FFFDCF80911D60F4
:1007800090911E60E0E0F8E0928310921D6010925C
:100790001E602FEF8EE994E2215080409040E1F7F7
:1007A00000C000008581806485830895E0E0F8E062
:1007B000848185FFFDCF109202082FEF8EE994E22D
:1007C000215080409040E1F700C0000008952FEFD5
:1007D0008DE399E4215080409040E1F700C0000093
:1007E000E0E0F8E0848185FFFDCF81E0809302089E
:1007F0002FEF8DE399E4215080409040E1F700C055
:10080000000008951F920F920FB60F9211242F939C
:100810003F934F935F936F937F938F939F93AF9388
:10082000BF93EF93FF9380E4809304080E948801B4
:10083000FF91EF91BF91AF919F918F917F916F91B8
:100840005F914F913F912F910F900FBE0F901F908E
:1008500018951F920F920FB60F9211248F938091CB
:100860000008811104C081E08093206004C08130C1
:1008700011F480931F608F910F900FBE0F901F9007
:100880001895EE0FFF1F0590F491E02D0994DC01FF
:0E08900028ED209334006C930895F894FFCF68
:10089E00FFFFFFFF00000002000000005D030000EC
:0208AE00000048
:00000001FF
