:100000000C9462000C947F000C947F000C947F0091
:100010000C947F000C947F000C947F000C947F0064
:100020000C947F000C947F000C947F000C947F0054
:100030000C9464030C947F000C947F000C947F005C
:100040000C947F000C947F000C947F000C947F0034
:100050000C947F000C9465040C947F000C943E0477
:100060000C947F000C947F000C94A2000C947F00F1
:100070000C947F000C947F000C947F000C947F0004
:100080000C947F000C947F000C947F000C94A401CE
:100090000C947F000C947F000C947F000C947F00E4
:1000A0000C947F000C947F000C947F000C947F00D4
:1000B0002A023F0248025C026B02A402C202D3027F
:1000C000DA02F00211241FBECFEFCDBFDFE7DEBFA3
:1000D00010E6A0E0B0E6ECE2F9E002C005900D9277
:1000E000A231B107D9F720E6A2E1B0E601C01D9226
:1000F000A832B207E1F70E94CF010C9494040C944B
:10010000000080EE8093620486E08093B000E0E01F
:10011000F6E094E0918393E0928390EA938395E0F4
:100120009087818781E0848781E28083089581E0E0
:1001300080930A060895E0E0F6E082E082878089F5
:10014000918908951F920F920FB60F9211242F9349
:100150003F934F935F936F937F938F939F93AF934F
:10016000BF93EF93FF9380911006909111060E9428
:100170006401FF91EF91BF91AF919F918F917F911A
:100180006F915F914F913F912F910F900FBE0F9004
:100190001F9018958CE080936104089588E0809307
:1001A0006504089588E0809366040895019721F41A
:1001B00088E08093660403C088E080936504613022
:1001C000710521F04115510501F5089541155105BD
:1001D000B9F180E090E0E0E6F4E024E02783ABE2D0
:1001E000B1E01197F1F700C000002783ABE2B1E066
:1001F0001197F1F700C0000030911F60311120C04D
:1002000001964817590751F7089580E090E0E0E61D
:10021000F4E024E02783A7EBBBE01197F1F700C0DF
:1002200000002783A7EBBBE01197F1F700C00000A7
:1002300030911F60311104C001964817590751F7DA
:100240000895E0E4F4E081E0828388E0808B089503
:10025000809148048095817008950E94280191E062
:100260008927089560E081E690E00E948E0464E2B0
:1002700088E690E00E948E0460E080E091E00E94B9
:100280008E0408958091176090911860A091196074
:10029000B0911A60892B8A2B8B2BA9F08091176063
:1002A00090911860A0911960B0911A600197A1090E
:1002B000B1098093176090931860A0931960B09370
:1002C0001A600E9497000895CF93DF93EC0180910C
:1002D000176090911860A0911960B0911A60892BF5
:1002E0008A2B8B2B29F40E945E0381E0809313609C
:1002F000C0931560D093166081E080931260809166
:100300001560909116600E94AB03DF91CF91089524
:10031000809114608823B9F080911260882399F04D
:10032000109212608091156090911660892F0E9442
:10033000AB0380911360882331F010921360109208
:1003400014600E94D90308951F920F920FB60F9266
:1003500011248F939F93EF93FF938091A90482FFC1
:100360000AC080911B6090911C60892B59F481E038
:100370008093216007C08091A90483FF03C081E0BE
:1003800080931F60E0EAF4E081858187FF91EF911F
:100390009F918F910F900FBE0F901F9018950E9404
:1003A00032010E9495030E9481000E94CA000E94AF
:1003B00012030E942101E0EAF4E08CE0828383E0F2
:1003C000828B838B78940E942801882341F040EA35
:1003D0005FE061E070E081E090E00E94D60000E024
:1003E00010E0C9E0D0E06894882481F8912C0F2EA9
:1003F000F0EB2F2EF02D0F2EF9E23F2EF02D0F2EC9
:10040000F8E94F2EF02D6894AA24A3F8B12C689433
:10041000EE24E2F8F12C552453940F2EF5E0CF2E64
:10042000D12CF02D0F2EF3E06F2E712CF02D80913A
:100430001F60882321F0C0931B60D0931C60E09163
:100440001B60F0911C60EA30F10588F7E85AFF4F15
:100450000C94880480912160882349F381E090E026
:1004600080931B6090931C6010922160E0CF41E06C
:1004700050E060E070E080E090E00E94D6000E94D2
:100480002D018111F4CF80921B6090921C60CFCF20
:1004900080912060811103C048E759E602C040E91D
:1004A00058E561E070E081E090E00E94D600609243
:1004B0001B6070921C60BBCF48EE53E060E070E0C0
:1004C00081E090E00E94D600E0921B60F0921C60F8
:1004D00000E010E0ACCF0E94D4038FE79FEEA0E0D5
:1004E000B0E08093176090931860A0931960B09368
:1004F0001A605092146010921260109213600E9461
:10050000570319C080911F608823A9F0F8941092B6
:100510001760109218601092196010921A60509231
:10052000146010921260109213600E949B000E944F
:100530005E03789404C0809114608111E3CFC0926F
:100540001B60D0921C6073CF6FE77FEE80E090E07D
:100550000E942A0380912060811103C08BE090E00B
:1005600002C084E190E00F5F1F4F8017910719F0E0
:1005700086E090E002C087E090E080931B6090935B
:100580001C6055CF80912060811108C042E653E085
:1005900060E070E080E090E00E94D600E0921B6096
:1005A000F0921C6044CF0E940404A0921B60B092A1
:1005B0001C603DCF80912060811103C0442D5AE31F
:1005C00002C0422D532D61E070E080E090E00E9477
:1005D000D6001092216010921B6010921C6027CFF1
:1005E00010921B6010921C601092216010921F608C
:1005F000F89408C041E050E061E070E080E090E0F5
:100600000E94D6000E942D018111F4CF40EA5FE0E4
:1006100061E070E081E090E00E94D60078940E9452
:100620001C0405CFE0E6F4E082E1818380E8818B61
:1006300083E08093E605E0E0FAE083E2818380E2F4
:10064000828780ED97E082A793A780EA9FE086A348
:1006500097A30895AB01BC011092E60580E1809359
:1006600067044115510561057105D1F080E090E006
:10067000DC01E0E6F4E022E0258330EA3A95F1F788
:10068000268330EA3A95F1F730911F60311108C0A6
:100690000196A11DB11D481759076A077B0761F72D
:1006A00080E18093670483E08093E6050895E0E0AD
:1006B000FAE088E0858381E080830895E0E0FAE055
:1006C000108280E2838708951F920F920FB60F92D7
:1006D00011242F933F934F935F936F937F938F9347
:1006E0009F93AF93BF93EF93FF9380E280930B0AA6
:1006F0000E944201FF91EF91BF91AF919F918F9125
:100700007F916F915F914F913F912F910F900FBE0D
:100710000F901F901895E0E0F8E0948195FFFDCFD1
:100720008093020880E090E00895E0E0F4E081E04A
:10073000818382E08283E0E0F8E080EC8683858339
:1007400088E690E08087918784E090E6809324603B
:1007500090932560089540911D6050911E60982FE0
:10076000942760E1969F900111249227292F30E071
:10077000722F6627452F5527462B572B92959F7032
:10078000220F331F220F331F220F331F2927242745
:10079000352720931D6030931E609091040895FFCB
:1007A000FFCF80930208089510921D6010921E6082
:1007B0000895E0E0F8E085818F7B8583848185FF63
:1007C000FDCF80911D6090911E6080930208E0E053
:1007D000F8E0848185FFFDCF80911D6090911E60BF
:1007E000E0E0F8E0928310921D6010921E602FEFFF
:1007F0008EE994E2215080409040E1F700C0000073
:100800008581806485830895E0E0F8E085818F7BB1
:100810008583848185FFFDCFE0E0F8E012822FEF31
:100820008EE994E2215080409040E1F700C0000042
:100830008581806485830895E0E0F8E085818F7B81
:1008400085832FEF8DE399E4215080409040E1F7BC
:1008500000C00000848185FFFDCFE0E0F8E081E08A
:1008600082832FEF8DE399E4215080409040E1F79F
:1008700000C0000085818064858308951F920F92D7
:100880000FB60F9211242F933F934F935F936F9363
:100890007F938F939F93AF93BF93EF93FF9380E4E6
:1008A000809304080E948801FF91EF91BF91AF915E
:1008B0009F918F917F916F915F914F913F912F9178
:1008C0000F900FBE0F901F9018951F920F920FB6AA
:1008D0000F9211248F9380910008811104C081E050
:1008E000809321600FC0813019F480931F600AC08B
:1008F000823021F481E08093206004C0833011F4C1
:10090000109220608F910F900FBE0F901F9018953E
:10091000EE0FFF1F0590F491E02D0994DC0128ED06
:0C092000209334006C930895F894FFCFEE
:10092C00FFFFFFFF00000002000000008B0300002F
:02093C000000B9
:00000001FF
